:1000000000800020BD01000035770000ED76000083
:10001000ED760000ED760000ED760000ED76000054
:10002000ED760000ED760000ED76000035770000FB
:1000300035770000ED760000218C0000258C000053
:100040003577000035770000357700003577000000
:1000500035770000357700003577000035770000F0
:1000600035770000357700003577000035770000E0
:1000700035770000357700003577000035770000D0
:1000800035770000357700003577000035770000C0
:1000900035770000357700003577000035770000B0
:1000A00035770000357700003577000035770000A0
:1000B0003577000035770000357700003577000090
:1000C0003577000035770000357700003577000080
:1000D0003577000035770000357700003577000070
:1000E0003577000035770000357700003577000060
:1000F0003577000035770000357700003577000050
:10010000357700003577000035770000357700003F
:10011000357700003577000035770000357700002F
:10012000357700003577000035770000357700001F
:10013000357700003577000035770000357700000F
:1001400035770000357700003577000035770000FF
:1001500035770000357700003577000035770000EF
:10016000357700009D7D0000357700003577000071
:1001700035770000357700003577000035770000CF
:1001800035770000357700003577000035770000BF
:1001900035770000357700003577000035770000AF
:1001A000357700003577000035770000357700009F
:1001B000357700003577000035770000564B4CF25C
:1001C000205210B51A804DF628121A8000BF00BFC9
:1001D00007F0B4FA514B4FF010621A60504A9A601F
:1001E000504ADA60504A136813F4807304D14F49BF
:1001F0000B604FF4A85313604D4B1A78110703D5C9
:100200001A7842F008021A704A4B4B492A221A7097
:100210004A4A4B4B8B4204D252F8040F43F8040B6A
:10022000F8E7484B484900228B4202D243F8042B9E
:10023000FAE74649464A002352F8230041F82300D2
:1002400001336F2BF8D1434B434A802103F8011B44
:100250009342FBD1414B3D4A1A60414B8A221A70AE
:10026000A3F5805324225A70A0221A709A7992071B
:10027000FCD59A79D406FCD43A4A937903F00C035E
:10028000082B384BF9D105221A7143225A719A79F9
:100290009006FCD5334A9179324B4906FBD5324A58
:1002A0004FF0817111600521516020221A709A79F6
:1002B00002F00C020C2AFAD12C4B2D4A1A602D4B5D
:1002C0002D4A1A6000225A60072243F8042C2B4A58
:1002D000C3F80C2D62B607F0ADFB144B1B68DA07B0
:1002E00005D5274807F092FB264B274A1A60274B73
:1002F0001B785B0609D5234C234B22689A4204D114
:100300001F4807F083FB0023236007F01DFA09F064
:10031000E1FA07F00FF9FEE70E20054030800440B7
:10032000823F04000100002B10D0034014D0034092
:1003300002D0074000E007404492FF1F242A01003A
:100340002087FF1F4492FF1F6896FF1F0082FF1F38
:100350000000000000E400E05FE400E008ED00E0E1
:1003600000500640004006404480044004800440A1
:10037000C010050014E000E03F190100000020203B
:1003800052A176641CE00340A5C3945A00F00740D4
:10039000FFFFFFFFFFFFFFFFFFFFFFFFFFFFFFFF6D
:1003A000FFFFFFFFFFFFFFFFFFFFFFFFFFFFFFFF5D
:1003B000FFFFFFFFFFFFFFFFFFFFFFFFFFFFFFFF4D
:1003C000FFFFFFFFFFFFFFFFFFFFFFFFFFFFFFFF3D
:1003D000FFFFFFFFFFFFFFFFFFFFFFFFFFFFFFFF2D
:1003E000FFFFFFFFFFFFFFFFFFFFFFFFFFFFFFFF1D
:1003F000FFFFFFFFFFFFFFFFFFFFFFFFFFFFFFFF0D
:10040000FFFFFFFFFFFFFFFFFFFFFFFFDEF9FFFF23
:1004100010B5054C237833B9044B13B10448AFF33E
:1004200000800123237010BD4492FF1F00000000D4
:10043000202A0100084B10B51BB108490848AFF34A
:1004400000800848036803B910BD074B002BFBD0A0
:10045000BDE81040184700BF000000004892FF1F91
:10046000202A01004492FF1F00000000037F427F0A
:10047000827713B38AB911B3013B10B44169DBB27F
:10048000437751F8234004610123A372807F10BC9D
:1004900051F8201018468A727047013A4169D2B269
:1004A000427751F82220026101239372827F51F832
:1004B000222000211846917270471846704708465E
:1004C000704700BFC36810B5044603B19847204683
:1004D00010BD00BF38B5037F054600244BB16B69E2
:1004E00053F824000368DB6898472B7F0134A3424C
:1004F000F5DC2B6900229A722B7FAA776A772BB1E1
:100500006B691B682B6101229A7238BD2B619B724B
:10051000FFDE00BF0B4601461A68184613691847EC
:1005200008B5C36803B19847002008BD704700BFF5
:100530000B4601461A681846536818470020704752
:1005400010B4037F447F847713B35A1E944210D0B3
:1005500001344269E4B2447752F824100161012366
:100560008B72817F52F8212000211846917210BCB5
:10057000704781B14169002242770C680461012310
:10058000A372807F10BC51F8201018468A72704701
:10059000184610BC70470846E9E700BF406870473E
:1005A000007A7047807A704710B4084C416000218F
:1005B0000460C260017241728172016141618161B6
:1005C00001774177817710BC704700BFFCA900001C
:1005D00038B50D46017F013104468900406909F0B4
:1005E00039FD606130B1237F40F82350237F13B180
:1005F0000133237738BD01232561AB72237FF7E7F1
:10060000FFF7E6BF70B50C4616460546FFF7E0FF5C
:100610002672A56170BD00BF436953F82100704781
:10062000007F704710B4054C416000210460C26037
:1006300001724172817210BC704700BF18AA00009D
:10064000F0B5044683B020200F4607F095F80D4A18
:100650000D4E1268019203460C4D0198E060002295
:100660002046A7602360636083E860001A725A72B4
:100670009A72DA601A615A619A611A775A779A7790
:1006800003B0F0BDF894FF1FD4090100FCA90000DD
:1006900030B50B4A436814681A6983B00194547AE0
:1006A000019DC5602CB91A6818465368984703B075
:1006B00030BD136810465B68984703B030BD00BF7B
:1006C000F894FF1F30B50B4A436814681A6983B069
:1006D0000194547A019DC5602CB91A681846936834
:1006E000984703B030BD136810469B68984703B025
:1006F00030BD00BFF894FF1F70B5114D82B02B685C
:100700000093009A4368C2601A7F04460E465AB1AD
:100710005A7F5B6953F8220030B103681B69984720
:1007200010B1606002B070BD002EFBD020682B6855
:1007300001930368019A6060E260DB689847F1E723
:10074000F894FF1F084B82B01B68019390E80C00DF
:100750009342019918BF9B69C16016BF4360002096
:10076000012002B0704700BFF894FF1F0068704777
:10077000416819B1806803681B681847704700BF5B
:10078000C0687047704700BF2DE9F04FDFF8109147
:1007900083B00F4682460021D9F8000002F018FA13
:1007A00006213C4808F054F83846FFF7F9FE0023CC
:1007B00001460A22384806F007FE374806F0F0FDE9
:1007C000C846002508262EE02046FFF7E7FE204613
:1007D000D8F800B0FFF7E2FE09F0B2FE4FF6FF7E58
:1007E000C0EBC0000C21B21E03B28DE8024012B271
:1007F0000221584602F0EAFB2046D8F80040FFF7F5
:10080000CDFE834609F09CFE2368024659465B688C
:10081000204698470421214808F01AF81E480F3650
:10082000013506F0BDFD3846FFF7FAFE8542E9B214
:1008300038462BDAFFF7F0FE036851461B68044682
:1008400098472046FFF7AAFE834609F079FE014645
:10085000584607F0FDFFD9F80000002332B204210A
:1008600002F0E0FB2046FFF79DFE0028ACD12046B9
:10087000D8F80040FFF792FE834609F061FE236836
:10088000024659465B6820469847C7E703B0BDE873
:10089000F08F00BF48AA00001089FF1F50AA000077
:1008A0006092FF1F014B1960704700BF6092FF1FED
:1008B00010B584B08DE80F0007F05EFFC0B20028CD
:1008C00059D03F38382856D8DFE800F01D55555527
:1008D00055555555555555555555555555555555C8
:1008E00055555555555555555555555555555D55B0
:1008F00055625555551D55555555555555555555D3
:100900006855555557000F21274807F0A1FF274884
:1009100006F046FD1A21264807F09AFF234806F004
:100920003FFD1921234807F093FF204806F038FDCA
:100930001221214807F08CFF1C4806F031FD1921D7
:100940001E4807F085FF194806F02AFD12211C48B1
:1009500007F07EFF154806F023FD1221194807F025
:1009600077FF124806F01CFD0F210F4807F070FFBB
:100970000E4806F015FD04B010BD68460021FFF7D3
:10098000A1FE04B010BD6846FFF7DCFE04B010BD48
:1009900068460021FFF7B0FE04B010BD6846002194
:1009A000FFF776FE04B010BD58AA00001089FF1FA3
:1009B00068AA000084AA0000A0AA0000B4AA00004F
:1009C000D0AA0000E4AA000030B58BB002AC0F9DA5
:1009D00084E80F0075B1012D0AD194E80F0006AC30
:1009E00084E80F0007F0C8FEC0B208B161280AD041
:1009F0000BB030BD0E9B0195009394E80F00FFF7FC
:100A000057FF0BB030BD2046FFF79CFEF0E700BF5C
:100A100030B5013183B00C1A9DB201B223B20095FA
:100A200012B2024801F038FE03B030BD9093FF1FB0
:100A300030B5013283B0541A9DB20AB223B201B26A
:100A40000095024801F016FD03B030BD9093FF1FE2
:100A500010B582B01BB2BDF810400093019413B2E0
:100A60000AB201B2024801F03BFF02B010BD00BF64
:100A70009093FF1F10B5064B044640F8EC3B06F080
:100A800075FC04F1E40006F071FC204610BD00BFC7
:100A90003420010010B50E4C01221146204602F010
:100AA00019FB002319462046482202F0BBFA112206
:100AB0000849204604F078FE1421074807F0C8FED4
:100AC000064806F06DFC064B05221A6010BD00BFFB
:100AD0009093FF1F98090100AC0901001089FF1FC6
:100AE0001888FF1F70B5144E144C05461021144889
:100AF00007F0AEFE2946304606F0A6FC304606F06A
:100B00004FFC01221146204602F0E4FA0023194668
:100B10002046482202F086FA0E220A49204604F0B6
:100B200043FE2946204606F08FFC4FF4FA7007F08A
:100B30002DF8054B1D6070BD1089FF1F9093FF1F9E
:100B4000C4090100D80901001888FF1F0220FFF71F
:100B5000C9BF00BF0420FFF7C5BF00BF30B50523E4
:100B600083B04FF4FC6504468DE828000D220A236B
:100B70007F21224801F0B4FE37238DE8280012229D
:100B80001E2375211D4801F0ABFE4FF4784531233B
:100B900015228DE8280078211823184802F016FA4B
:100BA00021464FF07E50019508F03AFB144908F0B9
:100BB00041FC08F02BFEC0B2009078210F481823AA
:100BC000152201F08DFE20460E4908F0D1FD08B92E
:100BD00003B030BD04221146084802F07BFA00231E
:100BE00021227A21054802F01DFA07490348012213
:100BF00003B0BDE8304004F0D7BD00BF9093FF1FA5
:100C000000004442CDCC4C3EE80901002DE9F047FC
:100C100084B00C46164601460A226846984606F0FD
:100C20006BFC204608F0B2FB2349054608F0B6FCF1
:100C300008F0C6FD620003462146204805F02AF967
:100C4000029C032C24D828461D491C4F08F0F2FBB7
:100C500008F0B6FD032581464FF0000A611B4EF2F5
:100C60003C7E4BF2B65242F64513684616D4BA6241
:100C7000FB62C7F824E006F053FC434601463246C7
:100C80000E4805F0A3F9013D4E4401D0029CE5E772
:100C9000684606F0E3FB04B0BDE8F0874346324601
:100CA00008210648C7F824A0C7F828A0C7F82CA038
:100CB00005F08CF9E7E700BF9A9919403893FF1FB8
:100CC0006666E63F2DE9F04F83B0BDF930400192F2
:100CD000002C22DD1FFA80FB0C440BEB03070E46B1
:100CE00099460FFA84FABFB24FF00008B9F1000F2D
:100CF0000EDD019B5C4603EB480521B2013435F85B
:100D0000023B07483246A4B201F0D8FAA742F4D118
:100D1000013636B25645C844E8D103B0BDE8F08F7D
:100D20009093FF1F2DE9F041304C82B04AF21458E5
:100D300006272046002101F04BFF20468DE8800168
:100D4000A0235322002101F0CBFD45F28A26022385
:100D50002D2520468DE848005522A023002101F0D2
:100D6000BFFD3B462046CDF8048000955722352133
:100D700001F0B6FD20468DE860000423552236219F
:100D800001F0AEFD3B4620468DE8200157226A2146
:100D900001F0A6FD20468DE86000042355226B215A
:100DA00001F09EFD124B13481A6800214FF4915434
:100DB000142304FB0202009308463A23FFF782FF44
:100DC000102300930C4A2A2359210020FFF77AFFB1
:100DD0000F230093094A292359217020FFF772FF3E
:100DE000074B01221A7002B0BDE8F0819093FF1FFB
:100DF0000888FF1FF8AA00007C150100E00B010025
:100E00006492FF1F70B5174E174C05461221174804
:100E100007F01EFD2946304606F016FB304606F068
:100E2000BFFA01221146204602F054F90023194668
:100E30002046482202F0F6F810220D49204604F020
:100E4000B3FC2946204606F0FFFA4FF4FA7006F08C
:100E50009DFE084B1D60FFF765FF074B06221A60D9
:100E600070BD00BF1089FF1F9093FF1FEC090100A8
:100E7000000A01000888FF1F1888FF1F0020FFF7E5
:100E8000C1BF00BF0120FFF7BDBF00BF0220FFF7B9
:100E9000B9BF00BF0320FFF7B5BF00BF0420FFF7B5
:100EA000B1BF00BF2DE9F8433A4D3B4C2E683B4F94
:100EB000DFF8249140F2EE2804E0B3F5FA6F15D87C
:100EC00007F0CAFD07F0C8FD237843B13B78DB0784
:100ED00005D52B68D9F800209B1A0E2B06D82B6855
:100EE00022789B1B002AE8D14345E9D902212C48EE
:100EF00001F056F903212A4804F05AFD0021284840
:100F000001F066FE01221146254802F0E3F8254B68
:100F10002548197805F0D8FA234805F097F92248B2
:100F200005F0FCFA204805F0E5F91D491F48FFF7D8
:100F3000B9FC1F48FFF71AFC00221E49FFF762FBAD
:100F40001D491C48FFF75CFB1C491A48FFF758FB7A
:100F50001B491848FFF754FB1A491648FFF750FB86
:100F60001348FFF703FC01221749FFF74BFB174912
:100F70001548FFF745FB16491348FFF741FB0C489E
:100F8000FFF7F4FB1349FFF73BFBBDE8F843FFF71E
:100F9000C9BE00BFF894FF1FDC95FF1FF495FF1F2B
:100FA0009093FF1F1088FF1FEC92FF1F0488FF1F04
:100FB0002493FF1F7093FF1F6C92FF1F7C92FF1FF3
:100FC0008C92FF1F9C92FF1FAC92FF1F0493FF1F88
:100FD0001493FF1FCC92FF1F6096FF1F2DE9F04175
:100FE0007C4E7D4F7D4D3A682B687D4C3168DFF833
:100FF0002C8286B002910192009394E80F00FFF7D3
:10100000E3FC142006F0C2FDD8F80030049320461B
:10101000049CFFF7B5FB734B1B68201A984206D956
:10102000714B1B78002B00F0C38006232B606F48A8
:10103000FFF794FDD8F800306D496E4A05930868B3
:10104000059B11686C4A1B1A8B4288BF01234FF025
:101050000000107088BF13702B68062B00F2AB8065
:10106000DFE803F09CA99264A9A90400634C644DD5
:1010700022681E2355F8220014210022FFF7C6FD26
:10108000236855F8230000226723C0F1FF000921DF
:10109000FFF7BCFD236855F8230072226723C0F1D7
:1010A000FF000921FFF7B2FD2268564955F82200DA
:1010B000554B322202FB00F27F3283FB0203488849
:1010C0009918D317C3EBE113002AA0F10501B8BFAB
:1010D00003F1FF33002903FB01F34C496DDB1933A6
:1010E00081FB0325002B4FEAE372C2EB25116FDB76
:1010F0000D46444805F012FAF0220021414805F05F
:10110000DDF9F02201213F4805F0D8F9F02217213E
:101110003C4805F0D3F9A91C89B24FF47042394814
:1011200005F0CCF9374805F0E5F81CE0012211463E
:101130003748324C01F0CEFF002319460A223448CA
:1011400001F070FF0A223349314804F02DFB0023DF
:10115000194614222E4801F065FF31682C4806F02C
:1011600073F903232B602C4A13680133322BC8BF59
:10117000002313602368214A0133FF2BC8BF0023DB
:10118000136006B0BDE8F08101220323002120484E
:101190003A602B60194C01F01BFDE4E7124B10483C
:1011A000164C00221A70FFF7E3FA05232B60DAE7EA
:1011B000FFF7B8FD39E7114CD5E7193B81FB032553
:1011C000002B4FEAE372C2EB251191DB4D1C90E737
:1011D0004D1E8EE70088FF1F9094FF1F1888FF1F89
:1011E0002493FF1F1488FF1F6492FF1FCDCC4C3F38
:1011F0003493FF1F0C88FF1F9494FF1F8C94FF1FD4
:1012000098050100EC92FF1F818080801F85EB51C3
:101210009093FF1F140A01006892FF1FF894FF1FAC
:1012200070B52E4E2E4D2F4C82B008220D23019208
:10123000009330460B2309220A2104F027FD2A4699
:101240003046294907F0AAFD284B294A29492A484E
:1012500004F00AFE522320460722182105F018F94F
:101260002A462046254907F099FD25492548FFF7DC
:10127000E7F9002224492548FFF796F9002224497E
:101280002448FFF791F9244A24492548FFF7CAF971
:10129000244A25492548FFF7C5F9254A2549264806
:1012A000FFF7C0F9254A26492648FFF7BBF9264A29
:1012B00026492748FFF7B6F9264A27492748FFF766
:1012C000B1F9274A27492848FFF7ACF9274A2849A6
:1012D000284802B0BDE87040FFF7A4B99093FF1F03
:1012E000FC87FF1FEC92FF1F750A0000510A0000E7
:1012F000310A0000110A00003893FF1F2D62000020
:101300000488FF1F2493FF1F200A01007093FF1F12
:10131000280A0100AC92FF1F4D0B0000300A0100AB
:10132000CC92FF1F7D0E00003C0A01006C92FF1F53
:10133000850E0000440A01007C92FF1F8D0E000004
:101340004C0A01008C92FF1F950E0000500A01000C
:101350009C92FF1F9D0E0000540A0100DC92FF1FAB
:10136000550B00005C0A01000493FF1F950A000062
:10137000680A01001493FF1F00207047704700BFE8
:1013800010B582B002AB026803F8011D546819461B
:101390000122A04702B010BDF0B507464FF0010E84
:1013A000002003E0D21A44EA06001BD0CD0801F069
:1013B0000703C3F108030EFA03F47D5D013C9A4272
:1013C00000FA03F604EA05041944EBD20121914026
:1013D0009B1A45FA03F34D1E00FA02F22B4043EA32
:1013E0000200F0BDF0BD00BFD0F89C3001221A70A1
:1013F000D0F8A0305BB11A6841F080514FF0004343
:10140000D3625163D36A002BFCDA936B7047F0B55B
:101410004FEA112E082480251EEA050FD0F89060AF
:1014200014BF012700273770D0F894603270D0F8CD
:101430009460013C4FEA55053370EDD1D0F8A030EF
:10144000C9B24BB11A684FF00043D3625163D36AFB
:10145000002BFCDA936BF0BD082280230127194290
:10146000D0F8905014BF012600262E70D0F894506A
:101470002F70D0F89450013A4FEA53032C70EED1FC
:10148000F0BD00BF2DE9F84F0446984D98482560FF
:10149000012600254FF0080E4FF07E5784F84FE0EC
:1014A0008A466765C4F88000294604F1E400257186
:1014B0002573657384F8225084F84D50E56584F8EF
:1014C0006050A4F86C50C4F8A05084F8CC50C4F814
:1014D000D05084F8D450A4F8DC50C4F8E05084F81C
:1014E000236084F84C6084F84E6091469B469DF8DA
:1014F00028809DF82C7005F0D5FE294604F1EC00FB
:1015000005F0D0FEB4F9161084F884A0A023802042
:10151000FF224FF6FF7E7F29A4F87A2084F8859079
:1015200084F887B084F8888084F88670A571C4F840
:10153000B45084F8B850C4F8BC5084F8D550258114
:10154000658184F8406084F8416084F84460A56453
:10155000E565E58125820A46A4F87C30E384A38210
:10156000A4F87E00A0846082A4F834E0A4F832E0FD
:1015700000F38180A94200DC294680327F2A0E4692
:1015800061837EDC002A00F39A80B4F918300027CA
:101590009F2B3A46E78318467BDDA030A0239F2887
:1015A0009E46A3837DDDA0252846B9421DBFEB1AC8
:1015B000B3FA83F35B090123258484F82230002EDB
:1015C00076D1802A00F087804A4D84F8236007F0A6
:1015D00043FA2B781BB1484B1B78DA076AD4B4F96D
:1015E0002470B4F90E30B4F926E0B4F91000B4F95F
:1015F0001220B4F91410BB42A8BF3B467045A8BFE7
:101600007046BA42A8BF3A4623EAE3737145A8BFC1
:1016100071460FFA83FC22EAE27220EAE07006B219
:10162000944521EAE171A6831CBF761AB6FA86F6C4
:101630004FF0000814BF76090126A4F81AC0E2830F
:101640002184A4F81680A4F8188084F822606BBB6B
:10165000974238D084F8233007F0FEF92B783BB15D
:10166000254B1B78DB0703D5244A254B12681B68E2
:101670002046BDE8F88F803201467F2A0646618306
:1016800080DD80273A46B4F91830E7839F2B18464F
:1016900083DC002B00DC0023A0309F289E46A38320
:1016A00081DC00280DDC002528467EE70023D1E7F9
:1016B000002689E7114A124B12681B688FE717B2A0
:1016C000E1E705B271E70028C4D1C1EB0E03B3FA1C
:1016D00083F35B09BEE7BEF1000F7FF475AFA0F1A5
:1016E000A006B6FA86F676096EE700BF3420010040
:1016F00000000238DC95FF1FF495FF1FF894FF1FD0
:101700006096FF1F837973B190F88A30D0F8A820D3
:10171000D0F8B00041EA03415163D36A03F4704347
:101720008342FAD87047D0F89C201370D0F8A030CC
:101730004BB11A684FF00043D3625163D36A002B58
:10174000FCDA936B7047F0B408221C460127802313
:101750001942D0F8905014BF012600262E70D0F800
:1017600094502F70D0F89450013A4FEA53032C70E4
:10177000EED1F0BC704700BF837903B390F88A3094
:10178000D0F8A82041EA034343F000631168536393
:1017900002E013F0F00F10D1D36AD800F9D54FF062
:1017A0008053D3621160D36A13F0F00F2ED0936B85
:1017B000D36A13F0F00FFAD17047936BECE7D0F8CF
:1017C0009C201370D0F8A0304BB11A684FF0004342
:1017D000D3625163D36A002BFCDA936B7047F0B489
:1017E00008221C46012780231942D0F8905014BFCC
:1017F000012600262E70D0F894502F70D0F8945007
:10180000013A4FEA53032C70EED1F0BC704700BF91
:10181000837973B190F88930D0F8A820D0F8B0005F
:1018200041EA03415163D36A03F470438342FAD817
:101830007047D0F89C3001221A70D0F8A0304BB11C
:101840001A684FF00043D3625163D36A002BFCDA6D
:10185000936B7047F0B415461C460822802319424A
:10186000D0F8906014BF012700273770D0F894603B
:101870003570D0F89460013A4FEA53033470EED1DA
:10188000F0BC7047837903B390F88930D0F8A82072
:1018900041EA034343F000631168536302E013F02D
:1018A000F00F10D1D36AD800F9D54FF08053D3622E
:1018B0001160D36A13F0F00F2FD0936BD36A13F03B
:1018C000F00FFAD17047936BECE7D0F89C3001220F
:1018D0001A70D0F8A0304BB11A684FF00043D362B1
:1018E0005163D36A002BFCDA936B7047F0B4154652
:1018F0001C46082280231942D0F8906014BF0127AB
:1019000000273770D0F894603570D0F89460013AB1
:101910004FEA53033470EED1F0BC7047D0F8A030DA
:101920002DE9F04104460D4683B1D97AD0F88020E4
:10193000002938D11B68D968914207D0B748186090
:10194000B749DA6042F0804018611960D4F89830E5
:101950000BB100221A7036212046FFF7D3FE05F0A6
:101960000301022984F84210637972D0032951D00F
:10197000012936D0022B00F06981052B00F0668129
:10198000C8212046FFF77EFFB4F87E00B4F87C1033
:10199000B4F87220B4F87430A084E184A4F87620FE
:1019A000A4F8783073E072B6D97AC80706D59D4896
:1019B000D9680668314099610160D97A8F0706D5E8
:1019C0009948196906683140D9610160D97A4E0792
:1019D00005D596485969066831401962016062B6BA
:1019E000A8E7022B00F04181052B00F03E81A821E1
:1019F0002046FFF747FFB4F87E00B4F87C10B4F837
:101A00007220B4F87430E084A184A4F87820A4F89B
:101A100076303CE0022B00F02381052B00F0208182
:101A200068212046FFF72EFFB4F87430B4F87C002C
:101A3000B4F87E10B4F87220A08423F020039BB287
:101A4000003318BF0123A4F87630E184A4F878208D
:101A50001DE0022B00F0FF80052B00F0FC80082128
:101A60002046FFF70FFFB4F87430B4F87E00B4F8E6
:101A70007C10B4F87220A08423F020039BB20033C2
:101A800018BF0123A4F87830E184A4F87620D4F8B4
:101A9000983094F84220A4F87A200BB101221A70F1
:101AA000D4F8A03093B1DA7A82B1D50703D5604A71
:101AB00099691160DA7A900703D55E4AD969116095
:101AC000DA7A510702D55C4A1B6A1360B4F92450D4
:101AD000B4F91630B4F92660B4F9180065825A19C1
:101AE000AA4200EB0601A8BF2A46AB42A8BF2B467C
:101AF000B142A8BF3146B042A8BF304622EAE272E6
:101B000023EAE37312B20FFA83FE21EAE17120EABD
:101B1000E07007B2964509B2A7831CBF7F1AB7FAD7
:101B200087F74FF0000C14BF7F090127E283A682DC
:101B30002184A4F81AE0A4F80EC0A4F810C084F818
:101B40002270002B40F09880954200F097803B4D2A
:101B500084F8233006F080FF2B783BB1384B1B789C
:101B6000DA0703D5374A384B12681B68B4F924707A
:101B7000B4F90E20B4F926E0B4F91000B4F912302B
:101B8000B4F91410BA42A8BF3A467045A8BF7046CF
:101B9000BB42A8BF3B4622EAE2727145A8BF71462C
:101BA0000FFA82FC23EAE37320EAE07006B29C4558
:101BB00021EAE171A6831CBF761AB6FA86F64FF0C9
:101BC000000814BF76090126A4F81AC0E383218413
:101BD000A4F81680A4F8188084F82260002A49D15D
:101BE0009F4213D0134684F8233006F035FF2B783C
:101BF0003BB1134B1B78DB0703D5124A124B12681B
:101C00001B68002323816381BDE8F0810028E9D1AE
:101C1000C1EB0E03B3FA83F35B09E4E701403F0035
:101C200000003F8080E100E084E100E088E100E026
:101C300000E100E004E100E008E100E0DC95FF1FC6
:101C4000F495FF1FF894FF1F6096FF1FC0212046E8
:101C5000FFF718FE98E600212046FFF713FE02E783
:101C600060212046FFF70EFEDEE6A0212046FFF7AA
:101C700009FEC0E60023B6E7002368E700287FF4EA
:101C800066AF731AB3FA83F35B0960E782799AB19E
:101C900010B40B4690F88910D0F8A820D0F8B00006
:101CA00043EA014343F080535363D36A03F4704320
:101CB0009842FAD310BC7047FFF796BB10B48479F2
:101CC00014B30B4690F88910D0F8A82043EA0143DA
:101CD00043F0C0531168536302E013F0F00F11D1C9
:101CE000D36AD800F9D54FF08053D3621160D36A1C
:101CF00013F0F00F04D0936BD36A13F0F00FFAD106
:101D000010BC7047936BEBE710BCFFF76DBB00BFD7
:101D10002DE9F84FD0F8A03004468BB1D87AD4F82A
:101D20008020002840F0C3801B68D868904207D00C
:101D30006E4D1D606E48DA6042F080451D6118608E
:101D4000D4F898300BB100221A7091F800A04FF02F
:101D500000094E1CCA45354600F087802F462046B4
:101D600017F8021BFFF708FD6E7826F07F0806F0D3
:101D70007F06012E5FFA88F840F29480023EF6B2A8
:101D8000013507EB060B15F8011F2046FFF740FD54
:101D9000AB45F8D101363744397820467D1CFFF732
:101DA00071FDB8F1000F5BD02878D4F89830FF2887
:101DB00008BF4FF4FA7001350BB101221A70D4F844
:101DC000A03093B1DA7A82B1D10703D5494A996933
:101DD0001160DA7A970703D54749DA690A60DA7A37
:101DE000560702D5454A1B6A136005F0CFFED4F8AA
:101DF000A030002B2FD0D97AD4F88020F9B172B658
:101E0000D97AC80707D53E490868D96801403C48D7
:101E100099610160D97A8F0707D53A49086819692D
:101E200001403848D9610160D97A4E0706D5364954
:101E300008685969014034481962016062B61B683C
:101E4000D968914207D02948186042F08041DA6091
:101E5000274A19611A60D4F898300BB100221A7021
:101E600009F10109CA457FF479AFD4F898300BB174
:101E700001221A70D4F8A03093B1DA7A82B1D00777
:101E800003D51C4A99691160DA7A910703D51A4A79
:101E9000D9691160DA7A520702D5184A1B6A1360B1
:101EA000BDE8F88F3D46002E3FF47BAF74E772B675
:101EB000D87AC60706D5124DD8682E68304098618A
:101EC0002860D87A850706D50E4D18692E683040EF
:101ED000D8612860D87A400705D50B4D58692E681F
:101EE00030401862286062B61EE700BF01403F0024
:101EF00000003F8000E100E004E100E008E100E0D4
:101F000080E100E084E100E088E100E0F8B504460B
:101F100090F887009F4D0023FF28A4F87430A4F8A0
:101F20007230A4F87630A4F8783094F8883004BF82
:101F30000B2084F88700FF2B08BF0D230E4608BF37
:101F400084F8883001462846174607F099F800289B
:101F50007CD194F884200023FF2AC4F8A030A37118
:101F60005DD08D4994F8850051F83220C4F898204E
:101F700051F8305094F88800C4F89C5051F8305013
:101F800094F88700C4F8945051F83010C4F89010B9
:101F900001211170D4F89C201370D4F89420137090
:101FA000D4F89020137094F88400FF2801D005F035
:101FB000C3FD012194F8850005F0BEFD012194F8D0
:101FC000880005F0B9FD012194F8870005F0B4FD03
:101FD00094F88600FF281AD0012105F0ADFD0121FB
:101FE00094F8860005F0A2FD642005F0CFFD0021E5
:101FF00094F8860005F09AFD642005F0C7FD94F87A
:102000008600012105F092FDC82005F0BFFD2EB12C
:1020100031462046BDE8F840FFF77ABEF8BD94F897
:1020200085105D4AC4F8983052F8310094F8881051
:10203000C4F89C0052F8310094F88710C4F894005A
:1020400052F83120C4F890201B70FFDE94F88810FD
:10205000284607F023F800283FF47BAF01234FF414
:1020600040524FF0000E4D49A371C4F8B02084F8DF
:10207000A4E02846C4F8A810C4F8A05094F887102B
:1020800007F03AF894F88810D4F8A00007F07CF82C
:10209000D4F8A00006F022FF17F0080F14BF4FF08D
:1020A00070534FF060537A0701D543F0007343F04B
:1020B0000043C4F8803094F8842094F88510D4F854
:1020C000A00006F0AFFF0546D0B194F88410D4F814
:1020D000A00006F0F1FF94F8851084F88900054609
:1020E000D4F8A00006F0E8FF0023284384F88A0013
:1020F000C4F89830D4F8A0305B68C4F8AC3067E717
:1021000094F88510D4F8A00006F078FFB8B994F8D8
:10211000843084F88900FF2B84F88A002BD11E4D6F
:1021200094F88500012105F007FD94F8853055F8F5
:102130003320C4F89C2000231370A371DAE784F8DD
:10214000895094F88510D4F8A00006F0B5FF94F8F3
:10215000843084F88A00FF2BCCD01846012105F08A
:10216000EBFC94F884200C4B53F83230C4F89830D0
:1021700001221A70BEE71846012105F0DDFC064D6C
:1021800094F8843055F83330C4F8983001221A702E
:10219000C6E700BFCC89FF1FCC27010000C002406A
:1021A00070B500220D463E490446FFF7AFFEB5B3B9
:1021B000012D58D0042D64D0052D13D0062D3DD00F
:1021C00038492046FFF7A4FD37492046FFF7A0FD18
:1021D000022D1BD02368657120461B690021BDE8D4
:1021E00070401847A0225023A4F87C20A4F87E3029
:1021F0002E492046FFF78CFD18220023A4F87220F8
:10220000A4F8743028492046FFF782FD2046362185
:10221000FFF778FAC0212046FFF734FBDAE72046C3
:102220002349FFF775FD02220123A4F87220A4F8C8
:1022300074301D492046FFF76BFDCBE7A0225023E9
:10224000A4F87C20A4F87E301A492046FFF760FDF0
:102250001A220123A4F87220A4F8743012492046EF
:10226000FFF756FDB6E78023A4F87C3012492046DC
:10227000FFF74EFD02220323A4F87220A4F8743065
:10228000ECE78023A4F87C300B492046FFF740FDA3
:1022900000222023A4F87220A4F87430DEE700BFE7
:1022A0006820010048200100A42001001C2001003A
:1022B000582001000C200100FC1F0100F8B5C48A61
:1022C000B0F91A7021448CB225B2AF4200F3C0803D
:1022D000B0F91E60AE4240F3BB80068BB0F91C1013
:1022E0001644B6B232B2914200F3B280B0F9201077
:1022F000914240F3AD8090F8B81001B3B0F9C4102A
:10230000A942B0F9C810C8BFA0F8C4509142B0F9B2
:10231000C610C8BFA0F8C820A942B0F9CA10B8BFFB
:10232000A0F8C6509142B0F92410B8BFA0F8CA2056
:1023300002FB0155D0F8B40020F81530F8BDD0F8F4
:10234000A020002A35D0D57AD0F880102DB372B6EF
:10235000D57AEF0709D5DFF810E1D768DEF800502D
:102360003D409561CEF80050D57AAF0709D5DFF82A
:10237000FCE01769DEF800503D40D561CEF8005012
:10238000D57A6D0708D5DFF8E8E05769DEF8005028
:102390003D401562CEF8005062B61268D5688D4295
:1023A00007D02C4F17602C4DD16041F0804717614A
:1023B0001560D0F898200AB10021117007462A2133
:1023C0001D46FFF79FF9B7F87610214489B23846C9
:1023D000FFF75CFCB7F876100131214489B238462A
:1023E000FFF754FC2B213846FFF78CF9B7F878102B
:1023F000314489B23846FFF749FCB7F8781001310B
:10240000314489B23846FFF741FC2C213846FFF7AA
:1024100079F929463846FFF751FCD7F898300BB1C7
:1024200001221A70D7F8A03093B1DA7A82B1D007BE
:1024300003D50A4A99691160DA7A910703D5084AE7
:10244000D9691160DA7A520702D5064A1B6A13600D
:10245000F8BD00BF01403F0000003F8000E100E008
:1024600004E100E008E100E080E100E084E100E058
:1024700088E100E0F0B5C58AB0F91A7029448DB240
:1024800083B0044628B28742BDF820604DDCB4F921
:102490001E10814249DD218BB4F92070114489B2AC
:1024A0000AB2BA4241DAB4F91CE0724504DACEEB62
:1024B00003030B441BB27246D118B942C4BFBB1A06
:1024C0001BB2002B31DD94F8B81081B3B4F9C410FD
:1024D000B4F9C6508142B4F9C810C8BFA4F8C4000A
:1024E0009BB2914202F1FF31C8BFA4F8C820194441
:1024F0008542B4F9CA50B8BFA4F8C60009B28D42EB
:10250000C0F2B680B4F92450D4F8B410013B02FBF9
:1025100005021BB201EB42021680013BB4F9241004
:102520001BB25D1C02EB4102F6D103B0F0BDD4F842
:10253000A010002939D0CF7AD4F880C02FB372B65A
:10254000CF7AF80709D5DFF840E1C868DEF80070F7
:1025500007408F61CEF80070CF7AB80709D5DFF851
:102560002CE10869DEF800700740CF61CEF80070FA
:10257000CF7A7F0708D5DFF818E14869DEF80070E8
:1025800007400F62CEF8007062B60968CF686745F1
:102590000BD0DFF800E1C1F800E0374FC1F80CC004
:1025A0004CF0804EC1F810E00F60D4F8981009B1DB
:1025B000002008702A21204697B20193FFF7A2F865
:1025C000B4F87610294489B22046FFF75FFBB4F8CF
:1025D0007610294489B22046FFF758FB2B2120466C
:1025E000FFF790F8B4F87810394489B22046FFF725
:1025F0004DFBB4F87810019B01399DB23944294450
:1026000089B22046FFF742FB2C212046FFF77AF8DB
:10261000019B012B07D0013D31462046ADB2FFF7AB
:1026200035FB012DF7D831462046FFF747FBD4F89C
:1026300098300BB101221A70D4F8A030002B3FF46F
:1026400074AFDA7A002A3FF470AFD00703D50B4A93
:1026500099691160DA7A910703D5094AD96911603D
:10266000DA7A52077FF561AF064A1B6A13605CE7AE
:10267000A4F8CA1046E700BF00003F8000E100E078
:1026800004E100E008E100E080E100E084E100E036
:1026900088E100E001403F00F0B5058BB0F91C6017
:1026A0002A4495B283B0044628B28642BDF8207011
:1026B00051DCE28AB4F91E60114489B20AB2B24216
:1026C00049DAB4F920E0864545DDB4F91AE07245EF
:1026D00004DACEEB03030B441BB27246D118B142AD
:1026E000C4BFB31A1BB2002B35DD94F8B810A1B3E8
:1026F000B4F9C410B4F9C6E09142B4F9C810C8BF27
:10270000A4F8C42096B2814206F1FF3599B20D4477
:102710002DB2C8BFA4F8C800AE45B8BFA4F8C650D3
:10272000B4F9CA500E438542B8BFA4F8CA00F607F0
:10273000B4F9245040F1B480D4F8B430013900FB2E
:10274000052203EB420289B202EB4103023A22F86E
:10275000027F9342FBD103B0F0BDD4F8A010002952
:1027600039D0CE7AD4F880C02EB372B6CE7AF007C4
:1027700009D5DFF85CE1C868DEF8006006408E61CC
:10278000CEF80060CE7AB00709D5DFF848E10869D5
:10279000DEF800600640CE61CEF80060CE7A7607A3
:1027A00008D5DFF834E14869DEF8006006400E62C3
:1027B000CEF8006062B60968CE6866450BD0DFF8D7
:1027C0001CE1C1F800E03E4EC1F80CC04CF0804E58
:1027D000C1F810E00E60D4F8981009B1002008701C
:1027E0002A21204696B20193FEF78CFFB4F87610AA
:1027F000314489B22046FFF749FAB4F87610019BBC
:10280000013931449EB2314489B22046FFF73EFA85
:102810002B212046FEF776FFB4F87810294489B2C0
:102820002046FFF733FAB4F87810294489B22046DD
:10283000FFF72CFA2C212046FEF764FF019B012BA9
:1028400018BF354607D0013D39462046ADB2FFF7E7
:102850001DFA012DF7D839462046FFF72FFAD4F894
:1028600098300BB101221A70D4F8A030002B3FF43D
:1028700072AFDA7A002A3FF46EAFD00703D5114A5F
:1028800099691160DA7A910703D50F4AD969116005
:10289000DA7A52077FF55FAF0C4A1B6A13605AE77A
:1028A000D4F8B41000FB052247EA074701EB4202C7
:1028B000023B1BB242F8047B002BF9D14BE700BF6F
:1028C00000003F8000E100E004E100E008E100E0FA
:1028D00080E100E084E100E088E100E001403F00A9
:1028E0002DE9F04F0546C08AB5F91EE0014489B2D2
:1028F00085B008B27045BDF93860BDF83C4078DA63
:102900001F462B8BB5F920C01A4492B213B263450F
:102910006FDAB5F91A90019007EB000ACA4568DD35
:10292000B5F91CB0039306EB0308D84561DD4845B3
:10293000C0F2318102915B45C0F221819146D645BA
:1029400003DA029AC2EB0E073FB2C44595F8B820ED
:10295000BCBFC9EB0C0636B2002A68D0B5F9C4205A
:102960008242B5F9C820C8BFA5F8C4009A42C8BFC2
:10297000A5F8C830029BB5F9C600B9B2013B0B44BB
:102980001BB2984209F1FF32B8BFA5F8C6303244F5
:10299000B5F9CA3012B29342029BB8BFA5F8CA205B
:1029A0000B431946C907B5F92420D5F8B43023D410
:1029B0000399019807EBD77701FB0200002E4FEA3D
:1029C000670144EA044403EB400012DD02EBD272DB
:1029D0005510AD00002906DD0246002301338B426D
:1029E00042F8044BFAD1013EB3B228441EB2002B88
:1029F000F0D105B0BDE8F08F03990198002E01FBDE
:102A0000020103EB4101F4DD7800002F07DD0A1815
:102A10000B4623F8024B9A42FBD1B5F92420013E24
:102A2000B3B201EB42011EB2002BEED1E1E7D5F8C3
:102A3000A030002B35D0DA7AD5F880102AB372B6E0
:102A4000DA7AD00709D5DFF87CE1D868DEF8002013
:102A500002409A61CEF80020DA7A900709D5DFF8B3
:102A600068E11869DEF800200240DA61CEF8002043
:102A7000DA7A520708D5DFF854E15869DEF8002009
:102A800002401A62CEF8002062B61B68DA688A42F9
:102A900007D047481860474AD96041F08040186124
:102AA0001A60D5F898300BB100221A702A212846F6
:102AB000FEF728FE029BB5F87610194489B2284625
:102AC000FFF7E4F8B5F87610029B01391944394450
:102AD00089B22846FFF7DAF82B212846FEF712FEC6
:102AE000B5F87810494489B22846FFF7CFF8B5F811
:102AF000781001394944314489B22846FFF7C6F8B5
:102B00002C212846FEF7FEFD002E17DD012FC8BF41
:102B1000B8460ADD08F1FF38214628460FFA88F842
:102B2000FFF7B4F8B8F1010FF4D1013E2146284671
:102B3000FFF7C4F8B3B21EB2002BE7D1D5F8983036
:102B40000BB101221A70D5F8A030002B3FF451AF21
:102B5000DA7A002A3FF44DAFD00703D5164A9969B7
:102B60001160DA7A910703D5144AD9691160DA7ACB
:102B700052077FF53EAF124A1B6A136039E71FFA0E
:102B80008BF9C9EB0606324416B25B46CDF80CB0A1
:102B900006EB0B08D3E61FFA89F03F1A39440FB24F
:102BA0000290CDF80490484607EB090AC3E600BF3F
:102BB00001403F0000003F8000E100E004E100E050
:102BC00008E100E080E100E084E100E088E100E06D
:102BD00010B582B00022B0F926400191B0F924303E
:102BE00000941146FFF77CFE02B010BDF0B590F8DE
:102BF000B850BDF914E0069F55B3048BC58A144440
:102C00004E19B0F92410D0F8B42024B236B204FB27
:102C10000166BEF1000F02EB460619DD4FEA430CD8
:102C2000002B0CDDB91E06EB0C05324632F8024BC8
:102C300021F8024FAA42F9D1B0F9241067440EF1ED
:102C4000FF3292B206EB41060FFA82FE002AE7D16C
:102C5000F0BD00BF2DE9F04F87B042F20E7E1E4658
:102C60007145119BBDF940700093054600F0D98075
:102C700042F20E739A4200F0CC80EB8AB5F91E0046
:102C8000194489B20BB2834280F2C080B5F818C0F3
:102C9000B5F920E0624412B2724580F2B780B5F90E
:102CA0001AC003EB0609E1459A4640F3AF80B5F937
:102CB0001C8007EB020BC345144640F3A780424536
:102CC0000DDAC2EB0802009C02FB06FBBF1A04EB04
:102CD0004B043FB20094424607EB080B4446DE45E6
:102CE000BCBFC2EB0E073FB2634580F25B81C1EB14
:102CF0000C011FFA81F8C8EB060636B2E24606EB75
:102D00000C096346484580F24A81C11A89B21FFA0C
:102D100086F9C1EB09091FFA89F90EB295F8B810C6
:102D2000002900F08680D5F8B410B5F9240001918F
:102D30000199B5F926E004FB00AA002F01EB4A0136
:102D4000844663DD17443FB201974FEA4807029774
:102D50004FEA49074FF0FF3A0397DDF800800593EB
:102D60007700D14604978B46029B002E984420DDC5
:102D7000ABF10201A8F10204002334F8020F31F88C
:102D8000027F87420ED09645A8BF96469145B8BFB0
:102D900091469C45C8BF0FFA83FC9A450880B8BF8E
:102DA0000FFA83FA0133B342E7D1049BB5F924004B
:102DB0009844039B01329844019B12B29A420BEB58
:102DC000400BD1D1B9F1FF3F059B1FD09BB203EB64
:102DD0000C02B5F9C41012B29142C8BFA5F8C420C4
:102DE000B5F9C8201FFA8AFA72455344B5F9C620CE
:102DF000C8BFA5F8C8E01BB29A42B8BFA5F8C63054
:102E0000B5F9CA304B4501DAA5F8CA9007B0BDE85C
:102E1000F08FB5F92620D21B02EBD27242F34F029B
:102E20002BE7B0F92410891B01EBD17141F34F015D
:102E30001EE7D5F8A010002939D0C87AD5F880E06F
:102E400028B372B6C87AC40709D5DFF870C1CC6858
:102E5000DCF8000020408861CCF80000C87A8407C4
:102E600009D5DFF85CC10C69DCF800002040C861BE
:102E7000CCF80000C87A440708D5DFF848C14C698F
:102E8000DCF8000020400862CCF8000062B6096857
:102E9000C86870450BD0DFF830C1C1F800C04348A6
:102EA000C1F80CE04EF0804CC1F810C00860D5F8B5
:102EB000981009B1002008702A2128461FFA82FBC9
:102EC0001FFA83FAFEF71EFCB5F87610514489B25A
:102ED0002846FEF7DBFEB5F87630013B53449919DE
:102EE00089B22846FEF7D2FE2B212846FEF70AFCBF
:102EF000B5F87810594489B22846FEF7C7FEB5F8F0
:102F0000781001395944394489B22846FEF7BEFE8B
:102F10002C212846FEF7F6FB002F1FDD4FEA49095A
:102F200009F1020ADDF800904FEA4808012EC14479
:102F300009DD3446013C39F8021B284624B2FEF76D
:102F4000A5FE012CF6D1B9F80010013F2846FEF786
:102F5000B5FEBBB2D1441FB2002BE7D1D5F89830F3
:102F60000BB101221A70D5F8A030002B3FF44EAF00
:102F7000DA7A002A3FF44AAFD00703D50C4A9969A0
:102F80001160DA7A910703D50A4AD9691160DA7AB1
:102F900052077FF53BAF084A1B6A136036E74FF0D4
:102FA0000009BBE64FF00008ACE600BF00003F8020
:102FB00000E100E004E100E008E100E080E100E081
:102FC00084E100E088E100E001403F002DE9F043AA
:102FD00083B09046BDF82C50BDF928900095074667
:102FE0000C461E46FFF758FB09F1FF3242443346B8
:102FF00021463846009512B2FFF74EFB4B4642463B
:10300000214638460095FFF735FA711E214409B272
:103010004B46424638460A9503B0BDE8F043FFF7F9
:1030200029BA00BF10B442F20E74A1420373437375
:1030300039D042F20E739A4240D0002948DBB0F9F1
:10304000243099421BDA002A01811DDBB0F92630B9
:103050009A4211DAB0F928304281994204DBB0F982
:103060002C402344994211DD002380F831300023A5
:10307000A0F86C3010BC70475A1E12B2EAE7591E15
:1030800009B2002A0181E1DA0022E3E7B0F92A302F
:103090009A42E9DBB0F92E100B449A42E4DC01239A
:1030A00080F83130E3E7B0F92410012301EBD1714E
:1030B0001941037342F20E739A42BED1B0F9262031
:1030C000012302EBD272002942FA03F24373B6DA0B
:1030D0000021B8E7002908BF0121002A08BF01220A
:1030E00080F8401080F84120704700BF2DE9F0477C
:1030F00082B0B0F92C30B0F92E208A46B0F92A10EF
:103100000446580008300AEB01050A4420F0070085
:10311000954202AFA8BF1FFA8AF9ADEB000D24DA81
:1031200002AE1FFA8AF94FF00108B4F9281001968F
:103130002AB22046CDF80080FFF758FDC9EB050202
:10314000B4F92C30B4F92810019612B2CDF80080F1
:103150002046FFF77FFDB4F92A10B4F92E20B4F908
:103160002C3001350A44AA42DFDCE08EB4F9281085
:103170000190C9EB0202CDF800A012B22046FFF781
:10318000AFFBBD46BDE8F0872DE9F04F93B0B0F935
:103190002440BDF8745004959DF8785003952E4650
:1031A0008C429DF87C50BDF870B0069540F30881C4
:1031B0002F46B0F92650954240F3028136B206EB15
:1031C00046056D0005964E19002E40F3F9803EB27B
:1031D000F7000896D619002E40F3F2800A93049B5C
:1031E00007929B458946064600F0ED80C18AB0F9FA
:1031F0001E20494489B20BB29342099380F2E080C9
:103200000798338BB6F920E084469C441FFA8CF073
:103210000FFA80FAF24580F2D380099BB6F91AC002
:103220001D446545994640F3CB80B6F91C80574450
:103230004745534640F3C48096F8B850002D00F03F
:103240003182039AB6F9C470069DDDF81080CDF87E
:1032500038B002EB420252004F454FEAC505B6F9BD
:10326000C87002F1FF324B460A44C4BFBDF8243097
:10327000A6F8C430691EB6F9C650039B12B2574572
:10328000C8BFA6F8C8A095420144B8BFA6F8C6209A
:10329000B6F9CA2009B28A42B8BFA6F8CA10591EA8
:1032A000C9B2481C89B20D460F9040000A9B059098
:1032B0002846013003EB8303079108900999AF4832
:1032C000D6F8B4200C93053303440AFB04110D9384
:1032D00002EB410308221192069A013A4FF00109CC
:1032E00010929B46069B002B00F037819DF84030E2
:1032F000013353441BB20493B6F91C30534551DCDF
:103300000C9BCDF828A01A469C4BCDF82CB002EBB4
:10331000030C5F46099BDDF838B0DDF834A01CF8DB
:10332000012B19EA020F039A14BFDE46C646DAB132
:10333000089A9DB2AC1824B23A46B6F91A009842DF
:1033400003F1010105DCB6F91E009842C8BFA2F8DE
:1033500000E00BB2A34202F10202EED1079B059AF4
:103360002B4401331BB21744E245D8D1039ADDF850
:1033700028A0DDF82CB09AB10F9AD01800B2B6F997
:103380001A10994203F1010205DCB6F91E109942A8
:10339000C8BFA7F8008013B2834207F10207EED13D
:1033A000B6F92440049B0AF1010A0FFA8AFA534540
:1033B0000BEB440B00F0D180B6F9203053459BDC79
:1033C00013B0BDE8F08F039B012B00F0D980BDF84E
:1033D0000C306A49DDF828E00D9118460C460523AB
:1033E00081000D46119113FB0E311EFB03F34200C9
:1033F0000E93234617B20B44821809920F9302468C
:1034000008235019049333460B975E4610904FF0F3
:103410000008012792469B460D9B0E9A0F989A181A
:10342000002312F8011B394218BF43F001035B006F
:103430009042DBB2F5D15B10DCB2002B00F02581AD
:103440001F2C79D0BDF818201FFA88F303931E2C87
:1034500012FB03F30C9308BF00211FD0079A0A97B1
:1034600003EB0208089F0FFA88F8002504F01C03FC
:103470001C2B04F018024FEA440105F101033BD074
:10348000182A49D0E20624D4CCB21DB2002C31D087
:103490001E2CEBD115FB0AF50A9FA9B207980C9BCD
:1034A0000196034449441AB2089B009309B2119B48
:1034B0005846FFF715FA049B039A013B9BB27F0025
:1034C00002F101080493FFB20FFA88F8002BA3D190
:1034D00076E705FB0A91A400ADB20196009709B208
:1034E000059B424658460235E4B2FFF7F9F92DB282
:1034F000002CCDD10A9FDEE705FB0A91ADB2019603
:10350000009709B2099B4246584604352401FFF74B
:10351000E7F92DB2E4B2B9E705FB0A91ADB2019625
:10352000009709B20B9B424658460335E400FFF76B
:10353000D7F92DB2E4B2A9E7069B079A019608FBDA
:103540000322089B00931FFA88F412B2109B039485
:1035500049465846FFF7C4F9ADE7119B013B4FEAD6
:10356000490913F0FF035FFA89F911933FF428AF7B
:10357000B6F9203053453FF7B5AE21E7EC20010006
:10358000069B012B7FF423AF0A98AA4ABDF81C10B2
:10359000069F0D92052313FB003810FB03F30593E0
:1035A0000023B2460391904404935E460D9B059A16
:1035B0009A18002312F8011B394218BF43F0010387
:1035C0005B009045DBB2F5D15B10DCB22BB31F2C56
:1035D0005FD01E2C4FF0000515D0BDF90CB004F0E3
:1035E0001C031C2B04F018024FEA440105F10103EF
:1035F0002DD0182A3AD0E0061BD4CCB21DB264B14B
:103600001E2CECD1ADB205EB090109B200960423E2
:10361000BDF90C205046FFF73FF8039B049A013395
:1036200001327F009BB2082A0492FFB20393BDD1FE
:10363000C6E6ADB205EB090109B233465A4650461B
:103640000235A400FEF73AFE2DB2E4B2D7E7ADB2E0
:1036500005EB0901009609B203235A46504604358A
:103660002401FFF719F82DB2E4B2C8E7ADB205EBBB
:103670000901009609B202235A4650460335E40078
:10368000FFF70AF82DB2E4B2B9E71FFA88F3039303
:1036900011E700960523BDF90C2049465046FEF778
:1036A000FBFFBAE7069D039CEF00099D04EB440471
:1036B00065454FEA4404C0F2458124B20D46A14459
:1036C0009145C4BF541B24B2C245C0F232810FFAE7
:1036D00087F907464B447345D6F8A020C4BFC7EB13
:1036E0000E0E0FFA8EF9002A2DD0D17AD6F880E08E
:1036F000E1B172B6D17ACB0706D54F48D3680168DD
:10370000194091610160D17A880706D54B48136949
:1037100001681940D1610160D17A4B0705D548484D
:103720005369016819401162016062B61268D1687C
:10373000714508D0434810604349C2F80CE04EF090
:10374000804010611160D6F898200AB100211170F4
:103750002A213046FDF7D6FFB6F87610294489B203
:103760003046FEF793FAB6F87620013A1544291947
:1037700089B23046FEF78AFA2B213046FDF7C2FFA8
:10378000B6F87810394489B23046FEF77FFAB6F8B9
:1037900078100A9B01393944494403EB830389B209
:1037A00030461C460B93FEF771FA2C213046FDF78C
:1037B000A9FF204BCDF81CB0621DD3180C93082331
:1037C0000D9301230593B6F92030534540F38C80C7
:1037D000069B002B7DD0069B013BDBB2013353449B
:1037E0001BB20893B6F91C30534567DC039B099C58
:1037F000CDF828A003F1FF380B9B1A460D4B02EBC6
:10380000030BD946DDF830B05FFA88F819F8013BB0
:10381000059A1342079B049A18BF1F46039B08BFD3
:1038200017465BB3A5B208F101032B440FFA83FAE4
:1038300010E000BFEC20010080E100E084E100E046
:1038400088E100E001403F0000003F80013424B2E5
:1038500054450FD0B6F91A30A342F7DCB6F91E3042
:10386000A342F3DD01343946304624B2FEF70EFAA6
:103870005445EFD108EB0504013424B2CB45C5D142
:10388000039BDDF828A0CBB15D1EEDB201352544C8
:103890002DB203E0013424B2AC420FD0B6F91A3095
:1038A000A342F7DCB6F91E30A342F3DD01340499DC
:1038B000304624B2FEF7EAF9AC42EFD10AF1010A30
:1038C000089B0FFA8AFA534503D0B6F920305345C6
:1038D00088DC059B5A000D9B013BD2B213F0FF031D
:1038E00005920D937FF46FAF00213046FDF744FF42
:1038F000D6F898300BB101221A70D6F8A030002B00
:103900003FF45EADDA7A002A3FF45AADD00703D512
:10391000104A99691160DA7A910703D50E4AD9697C
:103920001160DA7A52077FF54BAD0C4A1B6A1360BF
:1039300046E51FFA88F17A1A02440FFA82F90F4617
:103940004346C7E61FFA8CF5641B0C4424B2E146DB
:10395000B5E600BF00E100E004E100E008E100E0BE
:103960002DE9F04F846C85B0002C00F0E1800A292D
:1039700000F0D5800D2900F0C580A57BA94280F01C
:10398000C48094F810C06145C0F0BC80667C8E4253
:10399000C0F0B88094F80FE0CCEB0101714494F8CA
:1039A00012E0491B01FB0EE11646054672462068EF
:1039B0001F46FDF7F1FCA36803EB00084046032215
:1039C0000021FDF7E9FC002840F09C8094F813905A
:1039D00003214A464046FDF7DFFC94F814B00190FD
:1039E00009F1030949465A464046FDF7D5FC637D77
:1039F0000293D94449461A4682464046FDF7CCFC1C
:103A0000029B94F816B05A1E012101FA02F20242FA
:103A100018BF994099441ABF421A0292029049462F
:103A20005A464046FDF7B8FC01210BF1FF3201FA7E
:103A300002F202421ABF01FA0BF3C31A034609EB62
:103A40000B014046E27D0393FDF7A6FC94F819E0D4
:103A50003A88039B3188BDF80890BDF804B095F80A
:103A600044801FFA8AFA72449BB2CAEB0202D21A4D
:103A7000494492B289B20AEB020C01EB0B0E0FFA29
:103A80008CFC12B20FFA8EFE09B2B8F1000F18D0FA
:103A9000B5F92450754514DA00223280217E3A8827
:103AA0000A4492B23A8031881A44494492B289B2A7
:103AB00092440BEB010E0FFA8AFC12B20FFA8EFE43
:103AC00009B20E9BB3F900308B42C4BF0E9B198024
:103AD0000F9BB3F900309342C4BF0F9B1A80109B19
:103AE000B3F900307345BCBF109BA3F800E0119BF5
:103AF000B3F900306345BCBF119BA3F800C0338805
:103B00001844308005B0BDE8F08FE67B8E42FFF4AC
:103B100038AF94F812E0491B0EFB01F144E7002195
:103B20001180217E1A880A441A8005B0BDE8F08F02
:103B3000C56D002D65D00A295AD00D29E2D02E7A04
:103B4000B142DFD36F7A8F42DCD36F6895F80A8079
:103B500090F844C0891B07EBC10191F806908F785B
:103B600091F803E00E7991F9051009EB58084FFA26
:103B700088F8BCF1000F40F08580B3F900A090F800
:103B80004090B2F900C00E9B90F84100B3F900508C
:103B90001FFA89F401FB04C189B207FB041709B2BB
:103BA0008D42C4BF0E9D29800F9908FB00A3B1F977
:103BB00000109BB20EFB00301BB29942C4BF0F999C
:103BC0000B80109B013FB3F900303FB2BB42BCBF3A
:103BD000109B1F80119B0138B3F9003000B2834263
:103BE000BCBF119B1880138806FB0436168089E73A
:103BF000148090F84100A97A1A8800FB01221A80EB
:103C000080E70A296BD00D293FF47CAF90F844106F
:103C1000002956D1B2F9001090F84060B3F9005075
:103C2000062414FB0611109E90F84140B6F900607E
:103C30000139B14205EBC404C4BF109D298011991C
:103C4000B1F90010013C8C42C4BF11990C800E9C4C
:103C5000B2F90010B4F900408C42C4BF0E9C218020
:103C60000F99B3F90030B1F900109942C4BF0F9910
:103C70000B8090F84030118803EB430301EB4303C2
:103C800013803FE7B2F900C090F84090B0F924B03B
:103C900001EB070A09FB0ACADA4502DCB3F900A006
:103CA00071E71480AC7A90F841A01D880AFB045A91
:103CB0000FFA8AFAA3F800A090F84090B2F900C079
:103CC00061E7B2F9007090F84010B0F92460062462
:103CD00014FB0171B1420ADCB3F90050A3E715806F
:103CE00090F841101A8802EBC1021A800AE7158089
:103CF000198890F8415001EBC5052DB21D80B2F92D
:103D0000006090F8401014FB01618CE72DE9F04F42
:103D100089B00024DDF850B0139EBDF848503380C0
:103D2000ABF80050169DADF816302C80159D2C80F8
:103D30004FF6FF73B0F924E0B0F92670ADF818E043
:103D4000ADF81A70ADF81C30ADF81E30A2B3551E98
:103D5000ADB206460D444C1E0DF11E0A0DF11C09B4
:103D60000DF11A0806AF14F8011F12AB8DE8800799
:103D70000DF116023046FFF7F3FDAC42F3D1BDF969
:103D80001C20BDF918E0BDF91E30BDF91A7072454E
:103D900007DB13990132A1F800E01599CEEB02027E
:103DA0000A809F4205DC0133169AABF80070DB1BDA
:103DB000138009B0BDE8F08F4FF0FF331A46E6E7F5
:103DC0002DE9F04F87B08046119D0495129D109CFF
:103DD000059522B9002967D107B0BDE8F08F1746D5
:103DE0000026BDF91420029103EB04094FF0010AEB
:103DF0003446BDF910B0039207E016B1029A002ACA
:103E000043D1013400262B46C5B15D1E0AFA05F2E6
:103E10003A42F2D1C3EB0901091B23B25A4609B257
:103E2000404634B1B8F832E0039C8DE81040FEF70C
:103E300057FD013600242B46002DE6D174B1B8F8A9
:103E40003230BDF914200193C4EB0901009209B28C
:103E500023B2BDF910204046FEF742FD002EBBD034
:103E6000029B002BB8D0B8F83400BDF91430BDF96E
:103E700010201093C6EB0901119009B233B24046ED
:103E800007B0BDE8F04FFEF72BBDC3EB0901B8F852
:103E90003420039B0093891B019209B233B25A4626
:103EA0004046FEF71DFDACE7828E1192BDF914204D
:103EB0001092BDF910201BB221B207B0BDE8F04F3F
:103EC000FEF70EBD2DE9F04F846CA57B8D4297B0B7
:103ED00007D8E37B994204D8A27C491B02FB01F17D
:103EE0000FE0267CB142C0F02882637C994200F248
:103EF0002482E37BA27C01330B449B1B591B02FBF6
:103F000001F183462068FDF747FAA3681F18384679
:103F100003220021FDF740FA002840F00E82E57CE4
:103F200003212A463846FDF737FA267D0335294610
:103F3000324682463846FDF72FFA94F815800790EE
:103F40003544424629463846FDF726FA012208F153
:103F5000FF3302FA03F3034294F816900CBF069065
:103F600002FA08F205EB080618BF831A31464A46E2
:103F7000384618BF0693FDF70FFA012209F1FF3307
:103F800002FA03F3034294F817800CBF089002FA78
:103F900009F24E4418BF831A31464246384618BFCC
:103FA0000893FDF7F9F9BBF9083006990C90002B3E
:103FB000B7BF00231A461A46ABF808308A18059294
:103FC00000F1CA81059ABBF9243052449A429BF809
:103FD000443040F3B581002B00F0AF81069B002BED
:103FE000B6BF069B00235B42ABF80830227EBBF8CD
:103FF0000A3013441BB20022ABF80A3005929BF83A
:104000003020002A37D09BF83120002A33D0BBF96A
:104010002800BBF92C20059902445144914210DD3F
:10402000069A002AB7BF069AABF80800C2F1000949
:10403000ABF80890227E13441BB20022ABF80A3082
:104040000592BBF92A20BBF92E10607E0A44121A91
:10405000934210DD217E5846FFF748F8DBF84840D0
:10406000BBF80A30227EBBF82810ABF808109B1A68
:104070001BB2ABF80A30BBF926209A4240F35D81AF
:10408000657E0798BBF83410BBF832201D4406EB60
:104090000809089E08902D1AAD1B9142069500F064
:1040A000B780BBF916100598BBF90820BBF91E6054
:1040B000BBF91AE0084405460C980A951144081803
:1040C0000AEB050C6045B8BF6046B042A8BF304659
:1040D000109001387045CDF814C00990C0F24281AB
:1040E0000A9DA942A8BF294621EAE171B1420F9178
:1040F00080F23881BBF91810247E069DBBF92000A0
:10410000BBF91C600B440D44E118079C2C44A142F0
:10411000B8BF21468142A8BF014615910139B1427D
:10412000A84606941291C0F21D81AB42A8BF2B464F
:1041300023EAE373984240F315819BF8B820002AE4
:1041400000F04082BDF93C10BBF9C440BBF9C85037
:10415000BBF9C6E0BBF9CA001AB2A142BCBFABF8BA
:10416000C4100C46AA42BCBF1546ABF8C820714526
:10417000C4BFABF8C6108E468242BDF92410C4BF3E
:10418000ABF8CA201046BDF94820A142B8BFABF831
:10419000C410AA42B8BFABF8C8207145C8BFABF87D
:1041A000C6100F9DBBF924108242C8BFABF8CA20CD
:1041B000DBF8B42003FB015002EB400298450B9260
:1041C00040F34B81109CDDF824C0AE4615469E425C
:1041D00015DCBBF920209A4211DDE6450FDC724662
:1041E0002946BBF91A009042DCBFBBF834000880B6
:1041F0000132944201F10201F3D1BBF924100133E1
:10420000984505EB410500F02781BBF91C60DEE70E
:104210009BF84C00012840F2E18009F107060123D8
:1042200000F1FF3903FA09F9089B26F00706002B75
:104230007DD0069ACDF824A013445FFA89F90A9339
:104240000022099B002B6ED002EB030808990A9B01
:104250005B1A0793059B069314469BF84F10B4FB1B
:10426000F1FEF50801FB1E4E0139CEEB010111FBF9
:1042700000F17D5D9BF84EE0C9B245FA01F101EA1B
:104280000E0149454AD3BBF81650069BBBF91AE00C
:10429000A11A1D440D44ADB229B28E453EDCBBF9D6
:1042A0001EE08E453ADDBBF818A0079BBBF91CC089
:1042B0009A441FFA8AFA0FFA8AFEF4452EDCBBF9FB
:1042C00020C0F4452ADD9BF8B800BBF832300B93D0
:1042D000002852D0BBF9C400BBF92450BDF82C30E3
:1042E0008842BBF9C800C8BFABF8C4107045BBF921
:1042F000C600C8BFABF8C8E08842BBF9CA00B8BF67
:10430000ABF8C61070450EFB0511DBF8B400B8BF62
:10431000ABF8CAE020F811309BF84C00013444455A
:1043200006449AD12246089B013B089389D1BBF8E9
:1043300008300C9A1A44ABF8082017B0BDE8F08F8B
:10434000C3B99BF8303093B19BF83120BBF90A30E8
:10435000002A3FF490AE74E65B1AABF808300023F5
:1043600005932FE60C9B1A44ABF80820E5E7BBF950
:104370000A3080E6BBF90A3041E62A2158460D9200
:10438000FDF7C0F9BBF87610294489B25846FDF70D
:104390007DFCBBF87610294489B25846FDF776FCBF
:1043A0002B215846FDF7AEF9BBF87810514489B27D
:1043B0005846FDF76BFCBBF87810514489B258465B
:1043C000FDF764FC2C215846FDF79CF958460B99E3
:1043D000FDF75CFC9BF84C000D9A9FE7089B002BB7
:1043E000A5DDB846069F4FEAD9026FEA090318F81F
:1043F000022003F0070342FA03F3DD0709F101018C
:1044000022D4894601250026C6EB0A04202CA8BF29
:104410002024494622464046FCF7BEFF059B0295F4
:10442000F118024600910197234626440021584680
:10443000FFF7C6FCB245A144E6D8089B5B1B002BE6
:1044400008932F44CFDC72E703224046FCF7A4FF19
:1044500009F10409851CD6E70B959BF84C30012B1C
:1044600040F2B28209F1070323F0070A079B002BF1
:1044700077D04FF00009464653464A46CDF834807F
:104480000E97DDF83C90109FDDF824A0DDF82C801D
:10449000D1455ADC4C464546BBF91A10A1424DDCC9
:1044A000BBF91E10A14249DDBBF91C10B14245DC2D
:1044B000BBF92010B14241DD0A99A1427EDC059989
:1044C000A1424FEAD30E79DD9BF84F001193B2FB66
:1044D000F0FC9BF84C100E9B0B9200FB1C2C01383F
:1044E000CCEB000013F80EE0DBF83C30089310FB37
:1044F00001F1C9B29BF84E004EFA01F1084004F0F8
:1045000045FFDBF8541004F095FF05F07FF9089B98
:10451000DBF83810DFF8C0E30B9AC91AC0B201FB10
:1045200000F103EB511101EA0E0E4EEA1E4EA5F802
:1045300000E09BF84C10119B01320B440134A74260
:1045400005F10205A8D1BBF9241006980136864270
:1045500008EB41089CD1CDF82C80079BDDF8348016
:104560009844129B984508F101003FF7E0AE159F73
:10457000109C0F9EDDF824E00B9D0137BBF91C3029
:10458000834215DCBBF92030834211DD76450FDC18
:1045900033462A46BBF91A109942DCBFBBF83410E7
:1045A000118001339C4202F10202F3D1BBF92410C5
:1045B0000130B84205EB4105E0D1B8E6BBF8341054
:1045C0002980BBE7DBF8A020002A2CD0D17ADBF8C9
:1045D0008050E1B172B6D17ACC0706D5B648D16821
:1045E0000468214091610160D17A880706D5B348FB
:1045F000116904682140D1610160D17A4C0705D569
:10460000AF485169046821401162016062B61268C6
:10461000D168A94207D0AB481060AB49D56045F0DE
:10462000804010611160DBF898200AB10021117000
:104630000F9DAE45B8BFAE462A219E425846CDF8E2
:1046400044E03446B8BF1C46FDF75CF8BBF8761072
:10465000294489B25846FDF719FB099BBBF876102F
:10466000194489B25846FDF711FB2B215846FDF736
:1046700049F8BBF87810214489B25846FDF706FB8B
:10468000BBF87810129B0B4499B25846FDF7FEFA1E
:104690002C215846FDF736F8A0451CDD0B97109DE0
:1046A000099F119ECDF81890D946D346B742A8BFAE
:1046B000B24608DB0AF1010AB9F834104846FDF7A2
:1046C000E5FA5545F6D10134A045EFD1DA460B9F06
:1046D000CB46DDF818909BF84C30012B40F2B180AE
:1046E00009F1070323F0070A079BB3B34546CDF84A
:1046F00018A0CDF820800B97DDF840800F9FDDF8E3
:1047000024A01E464FF0000957451EDC3C46BBF96D
:104710001A30A34216DCBBF91E30A34212DDBBF9EE
:104720001C30AB420EDCBBF92030AB420ADD0A9BE9
:10473000A342584602DC059BA34248DCBBF8341078
:10474000FDF7A4FA0134A045E1D1013E05F10105D0
:10475000DAD1DDF82080079B9844109B119AC2EBB8
:10476000030E159BC8EB03030EFB03F3012B03F1B0
:10477000FF3406DDBBF834105846FDF787FA013CDC
:10478000F8D1BBF834105846FDF798FADBF89830AA
:104790000BB101221A70DBF8A030002B3FF4C7AD3B
:1047A000DA7A002A3FF4C3ADD00703D5474A9969A6
:1047B0001160DA7A910703D5454AD9691160DA7A2E
:1047C00052077FF5B4AD434A1B6A1360AFE59BF80F
:1047D0004F309BF84C20B9FBF3F1069803FB119185
:1047E000013B5B1AC00813FB02F30B9A115C9BF8A8
:1047F0004E00DBF83C200992DBB241FA03F318408B
:1048000004F0C4FDDBF8541004F014FE04F0FEFFC5
:10481000099ADBF838303049C0B29B1A03FB00F329
:1048200002EB5313194041EA1141584689B2FDF792
:104830002DFA06989BF84C30C31809F1010906932C
:1048400080E7079B002B88DD06974FEAD90306997E
:104850006FEA0902CB5C02F00702134113F0010377
:1048600009F10102079240F09F800B9308F10103C8
:104870000D93109B01330E93BBF91C3005934345F8
:104880002FDCBBF9203043452BDD0F9C0A9DAC4249
:1048900003DB26E00134A54220D0BBF91A30A34245
:1048A000F8DCBBF91E30A342F4DDBBF834105846E7
:1048B000FDF7ECF9EEE700BF80E100E084E100E005
:1048C00088E100E001403F0000003F8000E100E09F
:1048D00004E100E008E100E01FF8E007BBF91C304C
:1048E00005930A9DDDF81C900027C7EB0A06202ED1
:1048F00028BF2026324649460698FCF74DFD059B09
:10490000434528DCBBF92010414524DD741E0123FA
:1049100013FA04F41ED005975F46C346B046064618
:10492000B7F91A30AB420ADCB7F91E30AB4206DDEC
:10493000264214BF798EB98E3846FDF7A7F9640870
:1049400005F10105ECD14646D846BB46059FBBF9AB
:104950001C300593B1443744BA45C6D8059B9845E9
:1049600011DBBBF9203043450DDD099B9D4205F16C
:10497000010408DC0E9DBBF8341001345846FDF7E5
:1049800085F9A542F7D10D9B0B9A08F10108134454
:1049900043457FF471AF089B0B9A013B9B1A002B98
:1049A00008933FF752AFD8E6079906980322FCF721
:1049B000F3FC09F104030793431C02300B937FF4CB
:1049C00055AFDDF81C9040E7079B002B7FF7C9AD82
:1049D0000A9B0F9A07979B1A5B004446DDF84080BC
:1049E00014934FEAD90307996FEA0902CB5C02F0EE
:1049F0000702134113F0010309F10102119240F083
:104A00009F800D93621C0E92DDF8449008F1010224
:104A100023461392BBF91C2005929A4200F38E8024
:104A2000BBF920209A4240F389800F9A0A9CA24247
:104A300080F296800B99BBF91A009042DCBFBBF85C
:104A4000340008800132944201F10201F3D10B9A43
:104A50001499DDF844905518BBF91C2005920A9C66
:104A600006930027C7EB0A06202E28BF20263246D1
:104A700049460798FCF790FC059B06991A468A421E
:104A800026DCBBF920208A4222DD721E012313FAA4
:104A900002F21DD0099B9C4202DD19E0A04548D0DE
:104AA000BBF91A30A3420ADCBBF91E30A34206DD73
:104AB000104214BFBBF83230BBF834302B805208A0
:104AC00005F1020504F10104E8D1BBF91C3005939E
:104AD0003744BA45B144C5D8069B059A934210DBCA
:104AE000BBF920209A420CDD09998C4204F10102A5
:104AF00007DC1398BBF8341025F8021B0132824200
:104B0000F8D10D980E9ABBF9241002440B9801338A
:104B100000EB41009A420B907FF47CAF089A0D980D
:104B2000013A121A002A08921C463FF75AAF9846DB
:104B300017E5BBF91C3005934446C9E70B9D8EE78A
:104B4000119907980322FCF727FC09F1040311933C
:104B5000431C02300D937FF455AFDDF8449040E7DD
:104B60000B9DDDF844907AE7B0F96C308B424FDD55
:104B70002DE9F04FD0F85CB0456E9BF80870DBF87B
:104B800004809BF80A40B0F96A3090F84160EF1B4E
:104B900008EBC70E9EF9065005EB540414FB063CC7
:104BA000624532DB9EF803502C4406FB0434A242DB
:104BB0002BDA90F840309EF90590B0F968A09EF885
:104BC00002E0DBF8005038F83740CCEB020019FB6C
:104BD00003A93044C9EB01010138194490FBF6F2F6
:104BE0001EFB02F2013991FBF3F313449BB205EB78
:104BF000D3058022295D03F0070342FA03F319422B
:104C000014BF01200020BDE8F08F0020BDE8F08F28
:104C1000002070470D2900F04381C26D137A99423C
:104C2000C0F03E812DE9F04F547AA14297B000F2D6
:104C30003B815668CB1A06EBC3041194A578E4783F
:104C400008952F460B94002F00F02B81002C00F0CC
:104C50002881119D977A95F906E090F8444095F9DE
:104C600005B00EEB57050C95B0F908E054B1089F5C
:104C700090F84040B0F924505F4407FB04E4AC4294
:104C800000F31A811FFA8EF41491878E418E36F844
:104C900033300793B94213680593054600F0178136
:104CA0001199C38A0E7990F840100898234458440B
:104CB0009BB2864206FB01FEACBF03EB0E0000FB7D
:104CC00001300FFA83FA0BFB01331BB2BBF1000F6B
:104CD0000FFA80F90A93C0F2F781CDF818A0B5F960
:104CE0001EC0069B634580F2E28095F841300E932A
:104CF00095F96060DDF838B0B5F91810B5F90A001B
:104D0000927A039233461FFA8BF2084403FB0201A6
:104D1000039B049613FB0BF801EB5801B5F92060D7
:104D20001FFA81F80FFA88FBB34580F2C080B5F90D
:104D30001A10494500F3BB80B5F91C100D9103FB17
:104D4000028212B28A42C0F2B280B242B5F96A104F
:104D50001346A8BF3346E14513934B46A8BF6346AD
:104D6000814218BF0022099318BFA5F86C200C9B44
:104D7000039AA3EB5201049B95F8B820C91ABDF819
:104D8000383011FB03F15FFA81F94FFA89F303938D
:104D9000002A00F09E81B5F9C4000699814202DA2A
:104DA000A5F8C4100846B5F9C840B5F9C610069B69
:104DB000A345BCBFA5F8C8B05C468B4202DDA5F890
:104DC000C6301946B5F9CA20099B9345C4BF5A4657
:104DD000A5F8CAB083421398BCBFBDF82430A5F82B
:104DE000C430A0420346B8BF03460998B8BFA5F82F
:104DF000C830884213990346C4BF0346A5F8C6309D
:104E000091420B46C4BF0B46A5F8CA30B5F9240041
:104E1000069BD5F8B4200BFB003402EB4402039C44
:104E2000049209F1FF31C9B2002C00F0B78489B2B5
:104E300008F101060E449C46099F0D9B36B296462A
:104E40009B4521DBB5F920305B451DDDBC451BDAF8
:104E500063467246B5F91A409C4203F101000CDC2E
:104E60009A450ADCB5F96C409C4204DD1488B5F81B
:104E70006E309C4201D0AB8E138003B29F4202F190
:104E80000202E7D1B5F924000BF1010B0FFA8BFBFD
:104E9000B3450EEB400E00F03983B5F91C30CFE777
:104EA000704720293FF4D5AE17B0BDE8F08F7444A9
:104EB0002C8117B0BDE8F08F00240481977A90F818
:104EC00041E045890EFB07554581A646DCE60B9B74
:104ED000002B71D04FF0000A57465646CDF80CB063
:104EE000CDF810A0BDF83090DDF814B0DDF81CA0AE
:104EF000089B002B53D01C464FF000081EE0FF2EED
:104F00007FD006F0F003F02B00F0958006F0E00370
:104F1000E02B00F0AA8006F0C003C02B57D0330668
:104F20001DD401221346E41A98441F44964014F0FD
:104F3000FF045FFA88F8FFB2F6B230D07A0705D1E5
:104F40000AF101031BF80A601FFA83FA072CD6D86E
:104F5000032CD6D8DAD0022CDDD03306E1D5B5F853
:104F6000403040F20112934200F09A8095F84120BF
:104F7000698995F84030688E009212FB09F20A4464
:104F800003990190414401FB03E112B209B22846A2
:104F9000FDF7A6FC01221346B5F908E0C3E7049B20
:104FA0000B9A01330493DBB209F101099A421FFA0B
:104FB00089F99DD81FFA8EF40023A5F86C30119B57
:104FC0001A7995F8403002FB03442C816CE795F880
:104FD0004120698995F84030688E009212FB09F2F1
:104FE0000A4403990190414401FB03E112B25B00C2
:104FF00009B22846FDF774FC02221346B5F908E011
:1050000091E795F84120698995F84030688E0092C3
:1050100012FB09F20A4403990190414401FB03E1A8
:1050200012B2DB0009B22846FDF75AFC08221346EB
:10503000B5F908E077E795F84120698995F840309F
:10504000688E009212FB09F20A44039901904144D0
:1050500001FB03E112B29B0009B22846FDF740FCB8
:1050600004221346B5F908E05DE795F84120698907
:1050700095F84030688E009212FB09F20A440399B9
:105080000190414401FB03E112B203EB430309B277
:105090002846FDF725FC03221346B5F908E042E750
:1050A0000C986A896B8E024403980EEB0801014448
:1050B0000498024412B209B22846FDF7FFF8012213
:1050C0001346B5F908E02EE70A9B069300230A93DE
:1050D00005E6D5F8A030002B2CD0DA7AD5F8801070
:1050E000E2B172B6DA7AD00706D5B348DA68046856
:1050F00022409A610260DA7A970706D5AF481A69AA
:1051000004682240DA610260DA7A560705D5AC48B5
:105110005A69046822401A62026062B61B68DA6843
:105120008A4207D0A7481860A74AD96041F080405A
:1051300018611A60D5F898300BB100221A70B5F9D1
:105140001A40069BB5F91C60A342ACBFBDF81840DD
:10515000A4B22A21B3452846B4BFB6B24646FCF7EE
:10516000D1FAB5F87610214489B22846FCF78EFDB5
:10517000B5F87610099B0139194489B22846FCF725
:1051800085FD2B212846FCF7BDFAB5F8781031448F
:1051900089B22846FCF77AFDB5F87810139B0139DF
:1051A000194489B22846FCF771FD2C212846FCF7EA
:1051B000A9FA039B09F1FF34E4B2BBB3A4B208F12E
:1051C00001062644DDF8249036B2B5F91C305B4563
:1051D00021DCB5F920305B451DDD069F4F4509DB1D
:1051E00019E0B5F86E102846FCF750FD01373FB2C4
:1051F000B94510DDB5F91A30BB4239465A46284642
:10520000F4DCFFF7B1FC0028EBD1BA45CCBFB5F810
:105210007010A98EE7E70BF1010B0FFA8BFBB3457A
:10522000D3D108EB040301330FFA83FB0B9B002B54
:1052300000F0E180B5F920605E4540F3DC80069B1C
:105240000A99CDF834B08B42B8BF0B461A460023FA
:105250001946129395F841300C91184613B21093E9
:105260000E91CDF80CA00346002B00F03A815E456C
:1052700040F3BF80089A0C990A44D2B20492B5F95F
:105280001C205A4500F3DE80069B0A9A93421CDAE2
:10529000069C0A9E08E0B5F86E102846FCF7F6FC5E
:1052A000013424B2A64210DDB5F91A30A342F7DC6E
:1052B000B5F91E30A34221465A462846F0DDFFF7D5
:1052C00053FC0028E7D1A98EE7E7089B002B00F0EC
:1052D0001581049B95F84010DDF840A00C9A0E9EB5
:1052E000DDF81C900F93571C5407FFB206D1059BA5
:1052F00009F1010213F809601FFA82F961B35446FB
:105300004FFA86F80EE0B5F86E102846FCF7BEFCA2
:1053100095F840100134A4B2CAEB0403DBB2994201
:1053200024B218D9B5F91A30A342F3DCB5F91E300E
:10533000A342EFDDB8F1000F36DB5A46214628467E
:10534000FFF712FC0028DED1039BA342CCBFB5F8C7
:105350007010A98ED9E7A246049B76009F423A4678
:10536000F6B2C0D1099B534530DD039F099C0AE08A
:10537000B5F86E102846FCF789FC0AF1010A0FFA0D
:105380008AFA544522DDB5F91A30534551465A463A
:105390002846F2DCFFF7E8FB0028E9D15745CCBFEF
:1053A000B5F87010A98EE5E7698E2846FCF76EFC0B
:1053B00095F84010AEE700BF80E100E084E100E036
:1053C00088E100E001403F0000003F8095F8413057
:1053D0000D9A0BF1010B1FFA8BFBC2EB0B02D2B241
:1053E00093420FFA8BFB75D9B5F920205A453FF748
:1053F00046AFDDF80CA0139B5B4530DD069F099E90
:10540000B5F91C305B4523DCB74221DA3C4608E0A5
:10541000B5F86E102846FCF739FC013424B2A642D8
:1054200016DDB5F91A30A34221465A462846F4DC67
:10543000FFF79AFB0028EBD1A245CCBFB5F870105E
:10544000A98EE7E70C9A0F920E9EDDF81C90BFE73D
:105450000BF1010B139B0FFA8BFB9B45D0DB00215B
:105460002846FCF789F9D5F898300BB101221A705B
:10547000D5F8A030002B00F08F81DA7A002A00F0F6
:105480008B81D00703D5B04A99691160DA7A910708
:1054900003D5AE4AD9691160DA7A520740F17C81AE
:1054A000AB4A1B6AAF8E136069892C89EA8A2B8B01
:1054B000149868660B442244698EBDF82400A5F850
:1054C0006C00A5F87070A5F86820A5F86A30A5F8FA
:1054D0006E1074E50F9A0C920E96CDF81C90CDF8D4
:1054E00034B0129A0B990132D2B29142129280D00A
:1054F000B5F920605E453FF7B7AE7AE70C9B0F9396
:105500000E9EDDF81C90DDF840A02BE741444B1CBB
:105510000FFA83FB0B9BCDF810E0002B00F0D3803B
:10552000B5F920605E4540F3CE8095F841300E938A
:10553000DDF828C0069BCDF834B01FFA8CF2013A92
:10554000D21A92B2099BCDF80CB0002101320C4660
:105550001591591C530012930FFA81F90E9B0A946E
:105560000C94CB46002B00F0FB80039A964240F34C
:10557000A880089A0A9902EB01085FFA88F8B5F941
:105580001C2003998A4200F3D880069B049A634545
:1055900080F2FC80069BB5F91A00984203F10101E4
:1055A0000EDCB5F91E0098420ADDB5F96C00984290
:1055B00004DD1088B5F86E30984201D0AB8E1380B0
:1055C0000BB29C4502F10202E5D1049B129A60469F
:1055D0009A18089B002B00F0D380CDF840B095F8C6
:1055E00040100A9B0C9CDDF81CE0DDF814B0CDF8EF
:1055F0003880CDF83CC05E1C5F07F6B205D10EF1D5
:1056000001031BF80E401FFA83FE41B3034667B245
:10561000B5F91AC09C4516DCB5F91EC09C4512DDD3
:10562000002FC0F285809A450DDCB5F96CC09C4511
:1056300005DDB2F80090B5F86EC0E14503D0A98E43
:10564000118095F8401001339BB2C0EB030C5FFA58
:105650008CFC614502F102021BB2D9D818466400E5
:1056600046453346E4B2C6D1DDF83CC0DDF840B073
:105670000999431C81421BB20BDDB5F91A00591C74
:1056800098420BB2DCBFA98E11809B4502F1020249
:10569000F3D1B5F9240095F8413003990D9A049E91
:1056A000013189B28A1AD2B206EB400609B293429E
:1056B000049603914ED9B5F9202003998A423FF709
:1056C0005EAFDDF80CB0AF8E139B9B45BFF6ECAE22
:1056D000DDF818E0099C049EB5F91C305B451DDC23
:1056E000A6451BDA73463246B5F91A00984203F113
:1056F00001010CDC9A450ADCB5F96C00984204DD26
:105700001088B5F86E30984201D01780AF8E0BB27A
:105710009C4202F10202E7D1B5F92400139B0BF180
:10572000010B0FFA8BFB5B4506EB4006D4D1BBE6C1
:10573000698E118095F8401085E70A9A0E920C9CAC
:10574000DDF81CE0A9E700BF00E100E004E100E0B3
:1057500008E100E00E9A0A920C94CDF81CE00D913D
:10576000159A0B990132D2B29142159210D9B5F91E
:105770002060039A96423FF7F5AE9346AF8EA3E7BB
:105780000A9B0E930C9CDDF81CE071E7184620E79D
:10579000DDF80CB0AF8E97E7AF8E85E60B9B002B44
:1057A0007FF4C6AE90E700BF2DE9F041037B8AB0DD
:1057B00004460E46904613BB437B03BBB8F1000F73
:1057C00019D045460027A26C16F8013B013D002A7E
:1057D0004AD00A2B41D1117E638994F830200B44C2
:1057E0006381002A4FD094F83130002B4BD0238DA9
:1057F0002381002DE7D140460AB0BDE8F0810023A7
:1058000009A80DF1220108AA0DF1260503900291C5
:105810000192009304951FFA88F231462046FEF764
:1058200075FA237B4BB1BDF8243033B1BDF820109D
:10583000228901EB5303D31A2381637B4BB1BDF85B
:10584000263033B1BDF82210628901EB5303D31A1D
:105850006381002323736373B0E719462046FEF784
:1058600031FB002DAFD1C6E7E26DBAB10A2B0ED1E4
:10587000927A638994F8410094F8301000FB023367
:1058800063810029AFD12781002D9CD1B3E7194650
:105890002046FFF7BFF9002D95D1ACE70A2B45D084
:1058A0000D2BA6D094F830201AB194F83120002A9C
:1058B0005BD1B4F90810B4F90A2094F8410094F8C7
:1058C00040C00390B4F834E0CDF808C0608E8DE895
:1058D00001402046FDF758FC94F84020238994F8B5
:1058E000441002EB420003EB40031BB2238100296A
:1058F0003FF47FAF94F8301019B394F8311001B32E
:10590000B4F92800B4F92C10A2EB82025200014431
:1059100011448B4218DD638994F84120208103EB08
:10592000C2036381002D7FF44EAF64E7638994F86E
:10593000411094F8302003EBC1036381002AA2D008
:1059400051E7A2EB82025200B4F924100A449A42B1
:10595000BFF64FAF638994F84120278103EBC20360
:105960006381002D7FF42FAF45E7B4F92AE0B4F945
:105970002E1094F84100B4F90A207144A1EBC00143
:105980008A4202DCB4F9081099E7C10001F0F8017D
:1059900020460793FDF7AAFB628994F84100B4F909
:1059A00028102181A2EBC00212B26281079B86E718
:1059B000D0F8A0302DE9F04104460D468BB1D97ADC
:1059C000D0F88020002940F0F1801B68D96891420E
:1059D00007D0A2481860A249DA6042F080401861FE
:1059E0001960D4F898300BB100221A703621204685
:1059F000FBF788FE05F00303022B84F8423000F029
:105A00001381032B00F00781012B00F0ED80C021F2
:105A10002046FBF737FFB4F87200B4F87410B4F8FE
:105A20007E20B4F87C30A4F87600A4F87810A28424
:105A3000E384D4F89830A4F87A500BB101221A709C
:105A4000D4F8A03093B1DA7A82B1D50703D5854A6C
:105A500099691160DA7A900703D5834AD969116090
:105A6000DA7A510702D5814A1B6A1360B4F92450CF
:105A7000B4F91630B4F92660B4F9180065825A19E1
:105A8000AA4200EB0601A8BF2A46AB42A8BF2B469C
:105A9000B142A8BF3146B042A8BF304622EAE27206
:105AA00023EAE37312B20FFA83FE21EAE17120EADE
:105AB000E07007B2964509B2A7831CBF7F1AB7FAF8
:105AC00087F74FF0000C14BF7F090127E283A682FD
:105AD0002184A4F81AE0A4F80EC0A4F810C084F839
